{
  "contractName": "ERC721Enumerable",
  "abi": [
    {
      "anonymous": false,
      "inputs": [
        {
          "indexed": true,
          "internalType": "address",
          "name": "from",
          "type": "address"
        },
        {
          "indexed": true,
          "internalType": "address",
          "name": "to",
          "type": "address"
        },
        {
          "indexed": true,
          "internalType": "uint256",
          "name": "tokenId",
          "type": "uint256"
        }
      ],
      "name": "Transfer",
      "type": "event"
    },
    {
      "inputs": [
        {
          "internalType": "address",
          "name": "_owner",
          "type": "address"
        }
      ],
      "name": "balanceOf",
      "outputs": [
        {
          "internalType": "uint256",
          "name": "",
          "type": "uint256"
        }
      ],
      "stateMutability": "view",
      "type": "function"
    },
    {
      "inputs": [
        {
          "internalType": "uint256",
          "name": "_tokenId",
          "type": "uint256"
        }
      ],
      "name": "ownerOf",
      "outputs": [
        {
          "internalType": "address",
          "name": "",
          "type": "address"
        }
      ],
      "stateMutability": "view",
      "type": "function"
    },
    {
      "inputs": [],
      "name": "totalSupply",
      "outputs": [
        {
          "internalType": "uint256",
          "name": "",
          "type": "uint256"
        }
      ],
      "stateMutability": "view",
      "type": "function"
    },
    {
      "inputs": [
        {
          "internalType": "uint256",
          "name": "index",
          "type": "uint256"
        }
      ],
      "name": "tokenByIndex",
      "outputs": [
        {
          "internalType": "uint256",
          "name": "",
          "type": "uint256"
        }
      ],
      "stateMutability": "view",
      "type": "function"
    },
    {
      "inputs": [
        {
          "internalType": "address",
          "name": "owner",
          "type": "address"
        },
        {
          "internalType": "uint256",
          "name": "index",
          "type": "uint256"
        }
      ],
      "name": "tokenOfOwnerByIndex",
      "outputs": [
        {
          "internalType": "uint256",
          "name": "",
          "type": "uint256"
        }
      ],
      "stateMutability": "view",
      "type": "function"
    }
  ],
  "bytecode": "0x608060405234801561001057600080fd5b50610776806100206000396000f3fe608060405234801561001057600080fd5b50600436106100575760003560e01c806318160ddd1461005c5780632f745c591461007a5780634f6ccce7146100aa5780636352211e146100da57806370a082311461010a575b600080fd5b61006461013a565b60405161007191906103e6565b60405180910390f35b610094600480360381019061008f9190610490565b610147565b6040516100a191906103e6565b60405180910390f35b6100c460048036038101906100bf91906104d0565b610268565b6040516100d191906103e6565b60405180910390f35b6100f460048036038101906100ef91906104d0565b6102d9565b604051610101919061050c565b60405180910390f35b610124600480360381019061011f9190610527565b610315565b60405161013191906103e6565b60405180910390f35b6000600280549050905090565b60003073ffffffffffffffffffffffffffffffffffffffff166370a08231846040518263ffffffff1660e01b8152600401610182919061050c565b602060405180830381865afa15801561019f573d6000803e3d6000fd5b505050506040513d601f19601f820116820180604052508101906101c39190610569565b8210610204576040517f08c379a00000000000000000000000000000000000000000000000000000000081526004016101fb906105f3565b60405180910390fd5b600460008473ffffffffffffffffffffffffffffffffffffffff1673ffffffffffffffffffffffffffffffffffffffff168152602001908152602001600020828154811061025557610254610613565b5b9060005260206000200154905092915050565b600061027261013a565b82106102b3576040517f08c379a00000000000000000000000000000000000000000000000000000000081526004016102aa9061068e565b60405180910390fd5b600282815481106102c7576102c6610613565b5b90600052602060002001549050919050565b600080600083815260200190815260200160002060009054906101000a900473ffffffffffffffffffffffffffffffffffffffff169050919050565b60008073ffffffffffffffffffffffffffffffffffffffff168273ffffffffffffffffffffffffffffffffffffffff161415610386576040517f08c379a000000000000000000000000000000000000000000000000000000000815260040161037d90610720565b60405180910390fd5b600160008373ffffffffffffffffffffffffffffffffffffffff1673ffffffffffffffffffffffffffffffffffffffff168152602001908152602001600020549050919050565b6000819050919050565b6103e0816103cd565b82525050565b60006020820190506103fb60008301846103d7565b92915050565b600080fd5b600073ffffffffffffffffffffffffffffffffffffffff82169050919050565b600061043182610406565b9050919050565b61044181610426565b811461044c57600080fd5b50565b60008135905061045e81610438565b92915050565b61046d816103cd565b811461047857600080fd5b50565b60008135905061048a81610464565b92915050565b600080604083850312156104a7576104a6610401565b5b60006104b58582860161044f565b92505060206104c68582860161047b565b9150509250929050565b6000602082840312156104e6576104e5610401565b5b60006104f48482850161047b565b91505092915050565b61050681610426565b82525050565b600060208201905061052160008301846104fd565b92915050565b60006020828403121561053d5761053c610401565b5b600061054b8482850161044f565b91505092915050565b60008151905061056381610464565b92915050565b60006020828403121561057f5761057e610401565b5b600061058d84828501610554565b91505092915050565b600082825260208201905092915050565b7f6f776e657220696e646578206973206f7574206f6620626f756e647300000000600082015250565b60006105dd601c83610596565b91506105e8826105a7565b602082019050919050565b6000602082019050818103600083015261060c816105d0565b9050919050565b7f4e487b7100000000000000000000000000000000000000000000000000000000600052603260045260246000fd5b7f676c6f62616c20696e646578206973206f7574206f6620626f756e6473000000600082015250565b6000610678601d83610596565b915061068382610642565b602082019050919050565b600060208201905081810360008301526106a78161066b565b9050919050565b7f6f776e657220717565727920666f72206e6f6e6578697374656e7420746f6b6560008201527f6e00000000000000000000000000000000000000000000000000000000000000602082015250565b600061070a602183610596565b9150610715826106ae565b604082019050919050565b60006020820190508181036000830152610739816106fd565b905091905056fea264697066735822122046f94d0764a14285de66d3e48126d02af1f081f277ec75b24c1ef2fe5202eb4364736f6c634300080a0033",
  "immutableReferences": {},
  "source": "// SPDX-License-Identifier: MIT\npragma solidity ^0.8.0;\n\nimport './ERC721.sol';\n\ncontract ERC721Enumerable is ERC721 {\n    uint256[] private _allTokens;\n\n    // mapping from tokenId to position in _allTokens array\n    mapping(uint256 => uint256) private _allTokensIndex;\n\n    // mapping of owner to list of all owner token ids\n    mapping(address => uint256[]) private _ownedTokens;\n\n    // mapping from token ID index of the owner tokens list\n    mapping(uint256 => uint256) private _ownedTokensIndex;\n\n    // return the total supply of the _allTokens array\n    function totalSupply() public view returns (uint256) {\n        return _allTokens.length;\n    }\n\n    function tokenByIndex(uint256 index) public view returns (uint256) {\n        // make sure that the index is not out of bounds of the total supply\n        require(index < totalSupply(), 'global index is out of bounds');\n        return _allTokens[index];\n    }\n\n    function tokenOfOwnerByIndex(address owner, uint256 index) public view returns (uint256) {\n        require(index < this.balanceOf(owner),'owner index is out of bounds');\n        return _ownedTokens[owner][index];\n    }\n\n    function _mint(address to, uint256 tokenId) internal override(ERC721) {\n        super._mint(to, tokenId);\n\n        _addTokensToAllTokenEnumeration(tokenId);\n        _addTokensToOwnerEnumeration(to, tokenId);\n    }\n\n    function _addTokensToOwnerEnumeration(address to, uint256 tokenId) private {\n        // 1. ownedTokensIndex tokenId set to address of ownedTokens position\n        _ownedTokensIndex[tokenId] = _ownedTokens[to].length;\n        // 2. add address and tokenId to the _ownedTokens\n        _ownedTokens[to].push(tokenId);\n    }\n\n    // add tokens to the _allTokens array and set the position of the tokens indexes\n    function _addTokensToAllTokenEnumeration(uint256 tokenId) private {\n        _allTokensIndex[tokenId] = _allTokens.length;\n        _allTokens.push(tokenId);\n    }\n}",
  "sourcePath": "/Users/jaredhodgkins/Projects/Solidity/nft-marketplace-starter-kit/src/contracts/ERC721Enumerable.sol",
  "compiler": {
    "name": "solc",
    "version": "0.8.10+commit.fc410830.Emscripten.clang"
  },
  "schemaVersion": "3.4.3",
  "updatedAt": "2021-11-16T17:46:50.600Z",
  "devdoc": {
    "kind": "dev",
    "methods": {
      "balanceOf(address)": {
        "details": "NFTs assigned to the zero address are considered invalid, and this  function throws for queries about the zero address.",
        "params": {
          "_owner": "An address for whom to query the balance"
        },
        "returns": {
          "_0": "The number of NFTs owned by `_owner`, possibly zero"
        }
      },
      "ownerOf(uint256)": {
        "details": "NFTs assigned to zero address are considered invalid, and queries  about them do throw.",
        "params": {
          "_tokenId": "The identifier for an NFT"
        },
        "returns": {
          "_0": "The address of the owner of the NFT"
        }
      }
    },
    "version": 1
  },
  "userdoc": {
    "kind": "user",
    "methods": {
      "balanceOf(address)": {
        "notice": "Count all NFTs assigned to an owner"
      },
      "ownerOf(uint256)": {
        "notice": "Find the owner of an NFT"
      }
    },
    "version": 1
  }
}