{
  "contractName": "ERC721",
  "abi": [
    {
      "anonymous": false,
      "inputs": [
        {
          "indexed": true,
          "internalType": "address",
          "name": "from",
          "type": "address"
        },
        {
          "indexed": true,
          "internalType": "address",
          "name": "to",
          "type": "address"
        },
        {
          "indexed": true,
          "internalType": "uint256",
          "name": "tokenId",
          "type": "uint256"
        }
      ],
      "name": "Transfer",
      "type": "event"
    },
    {
      "inputs": [
        {
          "internalType": "address",
          "name": "_owner",
          "type": "address"
        }
      ],
      "name": "balanceOf",
      "outputs": [
        {
          "internalType": "uint256",
          "name": "",
          "type": "uint256"
        }
      ],
      "stateMutability": "view",
      "type": "function"
    },
    {
      "inputs": [
        {
          "internalType": "uint256",
          "name": "_tokenId",
          "type": "uint256"
        }
      ],
      "name": "ownerOf",
      "outputs": [
        {
          "internalType": "address",
          "name": "",
          "type": "address"
        }
      ],
      "stateMutability": "view",
      "type": "function"
    }
  ],
  "bytecode": "0x608060405234801561001057600080fd5b506103af806100206000396000f3fe608060405234801561001057600080fd5b50600436106100365760003560e01c80636352211e1461003b57806370a082311461006b575b600080fd5b610055600480360381019061005091906101ca565b61009b565b6040516100629190610238565b60405180910390f35b6100856004803603810190610080919061027f565b6100d7565b60405161009291906102bb565b60405180910390f35b600080600083815260200190815260200160002060009054906101000a900473ffffffffffffffffffffffffffffffffffffffff169050919050565b60008073ffffffffffffffffffffffffffffffffffffffff168273ffffffffffffffffffffffffffffffffffffffff161415610148576040517f08c379a000000000000000000000000000000000000000000000000000000000815260040161013f90610359565b60405180910390fd5b600160008373ffffffffffffffffffffffffffffffffffffffff1673ffffffffffffffffffffffffffffffffffffffff168152602001908152602001600020549050919050565b600080fd5b6000819050919050565b6101a781610194565b81146101b257600080fd5b50565b6000813590506101c48161019e565b92915050565b6000602082840312156101e0576101df61018f565b5b60006101ee848285016101b5565b91505092915050565b600073ffffffffffffffffffffffffffffffffffffffff82169050919050565b6000610222826101f7565b9050919050565b61023281610217565b82525050565b600060208201905061024d6000830184610229565b92915050565b61025c81610217565b811461026757600080fd5b50565b60008135905061027981610253565b92915050565b6000602082840312156102955761029461018f565b5b60006102a38482850161026a565b91505092915050565b6102b581610194565b82525050565b60006020820190506102d060008301846102ac565b92915050565b600082825260208201905092915050565b7f6f776e657220717565727920666f72206e6f6e6578697374656e7420746f6b6560008201527f6e00000000000000000000000000000000000000000000000000000000000000602082015250565b60006103436021836102d6565b915061034e826102e7565b604082019050919050565b6000602082019050818103600083015261037281610336565b905091905056fea2646970667358221220b26c677098ac4c75d084e88a28b67556ef6b90ec5002d3a4b36498582af8213b64736f6c634300080a0033",
  "immutableReferences": {},
  "source": "// SPDX-License-Identifier: MIT\npragma solidity ^0.8.0;\n\ncontract ERC721 {\n    event Transfer(address indexed from, address indexed to, uint256 indexed tokenId);\n\n    // mapping from token id to the owner\n    mapping(uint256 => address) private _tokenOwner;\n\n    // mapping from owner to number of owned tokens\n    mapping(address => uint256) private _ownedTokensCount;\n\n    function _mint(address to, uint256 tokenId) internal virtual {\n        // requires that the address isn't zero\n        require(to != address(0), 'ERC721: minting to the zero address');\n        // requires that the token does not already exist\n        require(!_exists(tokenId), 'ERC721: token already minted');\n        // we are adding a new address with a token id for minting\n        _tokenOwner[tokenId] = to;\n        // keeping track of each address that is minting and adding 1 to count\n        _ownedTokensCount[to]++;\n\n        emit Transfer(address(0), to, tokenId);\n    }\n\n    /// @notice Count all NFTs assigned to an owner\n    /// @dev NFTs assigned to the zero address are considered invalid, and this\n    ///  function throws for queries about the zero address.\n    /// @param _owner An address for whom to query the balance\n    /// @return The number of NFTs owned by `_owner`, possibly zero\n    function balanceOf(address _owner) external view returns(uint256) {\n        require(_owner != address(0), 'owner query for nonexistent token');\n        return _ownedTokensCount[_owner];\n    }\n\n    /// @notice Find the owner of an NFT\n    /// @dev NFTs assigned to zero address are considered invalid, and queries\n    ///  about them do throw.\n    /// @param _tokenId The identifier for an NFT\n    /// @return The address of the owner of the NFT\n    function ownerOf(uint256 _tokenId) external view returns (address) {\n        return _tokenOwner[_tokenId];\n    }\n\n    function _exists(uint256 tokenId) internal view returns(bool) {\n        // setting the address of nft owner to check the mapping\n        // of the address from tokenOwner at the tokenId\n        address owner = _tokenOwner[tokenId];\n        // returns truthiness the address is not zero\n        return owner != address(0);\n    }\n}",
  "sourcePath": "/private/var/admin/Projects/Solidity/udy-nft-marketplace/src/contracts/ERC721.sol",
  "compiler": {
    "name": "solc",
    "version": "0.8.10+commit.fc410830.Emscripten.clang"
  },
  "schemaVersion": "3.4.3",
  "updatedAt": "2021-11-16T03:14:06.373Z",
  "devdoc": {
    "kind": "dev",
    "methods": {
      "balanceOf(address)": {
        "details": "NFTs assigned to the zero address are considered invalid, and this  function throws for queries about the zero address.",
        "params": {
          "_owner": "An address for whom to query the balance"
        },
        "returns": {
          "_0": "The number of NFTs owned by `_owner`, possibly zero"
        }
      },
      "ownerOf(uint256)": {
        "details": "NFTs assigned to zero address are considered invalid, and queries  about them do throw.",
        "params": {
          "_tokenId": "The identifier for an NFT"
        },
        "returns": {
          "_0": "The address of the owner of the NFT"
        }
      }
    },
    "version": 1
  },
  "userdoc": {
    "kind": "user",
    "methods": {
      "balanceOf(address)": {
        "notice": "Count all NFTs assigned to an owner"
      },
      "ownerOf(uint256)": {
        "notice": "Find the owner of an NFT"
      }
    },
    "version": 1
  }
}