{
  "contractName": "KryptoBird",
  "abi": [
    {
      "inputs": [],
      "stateMutability": "nonpayable",
      "type": "constructor"
    },
    {
      "anonymous": false,
      "inputs": [
        {
          "indexed": true,
          "internalType": "address",
          "name": "from",
          "type": "address"
        },
        {
          "indexed": true,
          "internalType": "address",
          "name": "to",
          "type": "address"
        },
        {
          "indexed": true,
          "internalType": "uint256",
          "name": "tokenId",
          "type": "uint256"
        }
      ],
      "name": "Transfer",
      "type": "event"
    },
    {
      "inputs": [
        {
          "internalType": "address",
          "name": "_owner",
          "type": "address"
        }
      ],
      "name": "balanceOf",
      "outputs": [
        {
          "internalType": "uint256",
          "name": "",
          "type": "uint256"
        }
      ],
      "stateMutability": "view",
      "type": "function",
      "constant": true
    },
    {
      "inputs": [
        {
          "internalType": "uint256",
          "name": "",
          "type": "uint256"
        }
      ],
      "name": "kryptoBirdz",
      "outputs": [
        {
          "internalType": "string",
          "name": "",
          "type": "string"
        }
      ],
      "stateMutability": "view",
      "type": "function",
      "constant": true
    },
    {
      "inputs": [],
      "name": "name",
      "outputs": [
        {
          "internalType": "string",
          "name": "",
          "type": "string"
        }
      ],
      "stateMutability": "view",
      "type": "function",
      "constant": true
    },
    {
      "inputs": [
        {
          "internalType": "uint256",
          "name": "_tokenId",
          "type": "uint256"
        }
      ],
      "name": "ownerOf",
      "outputs": [
        {
          "internalType": "address",
          "name": "",
          "type": "address"
        }
      ],
      "stateMutability": "view",
      "type": "function",
      "constant": true
    },
    {
      "inputs": [],
      "name": "symbol",
      "outputs": [
        {
          "internalType": "string",
          "name": "",
          "type": "string"
        }
      ],
      "stateMutability": "view",
      "type": "function",
      "constant": true
    },
    {
      "inputs": [
        {
          "internalType": "uint256",
          "name": "index",
          "type": "uint256"
        }
      ],
      "name": "tokenByIndex",
      "outputs": [
        {
          "internalType": "uint256",
          "name": "",
          "type": "uint256"
        }
      ],
      "stateMutability": "view",
      "type": "function",
      "constant": true
    },
    {
      "inputs": [
        {
          "internalType": "address",
          "name": "owner",
          "type": "address"
        },
        {
          "internalType": "uint256",
          "name": "index",
          "type": "uint256"
        }
      ],
      "name": "tokenOfOwnerByIndex",
      "outputs": [
        {
          "internalType": "uint256",
          "name": "",
          "type": "uint256"
        }
      ],
      "stateMutability": "view",
      "type": "function",
      "constant": true
    },
    {
      "inputs": [],
      "name": "totalSupply",
      "outputs": [
        {
          "internalType": "uint256",
          "name": "",
          "type": "uint256"
        }
      ],
      "stateMutability": "view",
      "type": "function",
      "constant": true
    },
    {
      "inputs": [
        {
          "internalType": "string",
          "name": "_kryptoBird",
          "type": "string"
        }
      ],
      "name": "mint",
      "outputs": [],
      "stateMutability": "nonpayable",
      "type": "function"
    }
  ],
  "bytecode": "0x60806040523480156200001157600080fd5b506040518060400160405280600a81526020017f4b727970746f42697264000000000000000000000000000000000000000000008152506040518060400160405280600681526020017f4b424952445a00000000000000000000000000000000000000000000000000008152508181816000908051906020019062000098929190620000bc565b508060019080519060200190620000b1929190620000bc565b5050505050620001d1565b828054620000ca906200019b565b90600052602060002090601f016020900481019282620000ee57600085556200013a565b82601f106200010957805160ff19168380011785556200013a565b828001600101855582156200013a579182015b82811115620001395782518255916020019190600101906200011c565b5b5090506200014991906200014d565b5090565b5b80821115620001685760008160009055506001016200014e565b5090565b7f4e487b7100000000000000000000000000000000000000000000000000000000600052602260045260246000fd5b60006002820490506001821680620001b457607f821691505b60208210811415620001cb57620001ca6200016c565b5b50919050565b61143880620001e16000396000f3fe608060405234801561001057600080fd5b50600436106100935760003560e01c80636352211e116100665780636352211e1461013457806370a082311461016457806393ab6e561461019457806395d89b41146101c4578063d85d3d27146101e257610093565b806306fdde031461009857806318160ddd146100b65780632f745c59146100d45780634f6ccce714610104575b600080fd5b6100a06101fe565b6040516100ad9190610c01565b60405180910390f35b6100be610290565b6040516100cb9190610c3c565b60405180910390f35b6100ee60048036038101906100e99190610cf5565b61029d565b6040516100fb9190610c3c565b60405180910390f35b61011e60048036038101906101199190610d35565b6103be565b60405161012b9190610c3c565b60405180910390f35b61014e60048036038101906101499190610d35565b61042f565b60405161015b9190610d71565b60405180910390f35b61017e60048036038101906101799190610d8c565b61046c565b60405161018b9190610c3c565b60405180910390f35b6101ae60048036038101906101a99190610d35565b610524565b6040516101bb9190610c01565b60405180910390f35b6101cc6105d0565b6040516101d99190610c01565b60405180910390f35b6101fc60048036038101906101f79190610eee565b610662565b005b60606000805461020d90610f66565b80601f016020809104026020016040519081016040528092919081815260200182805461023990610f66565b80156102865780601f1061025b57610100808354040283529160200191610286565b820191906000526020600020905b81548152906001019060200180831161026957829003601f168201915b5050505050905090565b6000600480549050905090565b60003073ffffffffffffffffffffffffffffffffffffffff166370a08231846040518263ffffffff1660e01b81526004016102d89190610d71565b602060405180830381865afa1580156102f5573d6000803e3d6000fd5b505050506040513d601f19601f820116820180604052508101906103199190610fad565b821061035a576040517f08c379a000000000000000000000000000000000000000000000000000000000815260040161035190611026565b60405180910390fd5b600660008473ffffffffffffffffffffffffffffffffffffffff1673ffffffffffffffffffffffffffffffffffffffff16815260200190815260200160002082815481106103ab576103aa611046565b5b9060005260206000200154905092915050565b60006103c8610290565b8210610409576040517f08c379a0000000000000000000000000000000000000000000000000000000008152600401610400906110c1565b60405180910390fd5b6004828154811061041d5761041c611046565b5b90600052602060002001549050919050565b60006002600083815260200190815260200160002060009054906101000a900473ffffffffffffffffffffffffffffffffffffffff169050919050565b60008073ffffffffffffffffffffffffffffffffffffffff168273ffffffffffffffffffffffffffffffffffffffff1614156104dd576040517f08c379a00000000000000000000000000000000000000000000000000000000081526004016104d490611153565b60405180910390fd5b600360008373ffffffffffffffffffffffffffffffffffffffff1673ffffffffffffffffffffffffffffffffffffffff168152602001908152602001600020549050919050565b6008818154811061053457600080fd5b90600052602060002001600091509050805461054f90610f66565b80601f016020809104026020016040519081016040528092919081815260200182805461057b90610f66565b80156105c85780601f1061059d576101008083540402835291602001916105c8565b820191906000526020600020905b8154815290600101906020018083116105ab57829003601f168201915b505050505081565b6060600180546105df90610f66565b80601f016020809104026020016040519081016040528092919081815260200182805461060b90610f66565b80156106585780601f1061062d57610100808354040283529160200191610658565b820191906000526020600020905b81548152906001019060200180831161063b57829003601f168201915b5050505050905090565b60098160405161067291906111af565b908152602001604051809103902060009054906101000a900460ff16156106ce576040517f08c379a00000000000000000000000000000000000000000000000000000000081526004016106c590611238565b60405180910390fd5b600881908060018154018082558091505060019003906000526020600020016000909190919091509080519060200190610709929190610ac5565b506000600160088054905061071e9190611287565b905061072a3382610765565b600160098360405161073c91906111af565b908152602001604051809103902060006101000a81548160ff0219169083151502179055505050565b61076f8282610786565b61077881610946565b610782828261098f565b5050565b600073ffffffffffffffffffffffffffffffffffffffff168273ffffffffffffffffffffffffffffffffffffffff1614156107f6576040517f08c379a00000000000000000000000000000000000000000000000000000000081526004016107ed9061132d565b60405180910390fd5b6107ff81610a53565b1561083f576040517f08c379a000000000000000000000000000000000000000000000000000000000815260040161083690611399565b60405180910390fd5b816002600083815260200190815260200160002060006101000a81548173ffffffffffffffffffffffffffffffffffffffff021916908373ffffffffffffffffffffffffffffffffffffffff160217905550600360008373ffffffffffffffffffffffffffffffffffffffff1673ffffffffffffffffffffffffffffffffffffffff16815260200190815260200160002060008154809291906108e1906113b9565b9190505550808273ffffffffffffffffffffffffffffffffffffffff16600073ffffffffffffffffffffffffffffffffffffffff167fddf252ad1be2c89b69c2b068fc378daa952ba7f163c4a11628f55a4df523b3ef60405160405180910390a45050565b6004805490506005600083815260200190815260200160002081905550600481908060018154018082558091505060019003906000526020600020016000909190919091505550565b600660008373ffffffffffffffffffffffffffffffffffffffff1673ffffffffffffffffffffffffffffffffffffffff168152602001908152602001600020805490506007600083815260200190815260200160002081905550600660008373ffffffffffffffffffffffffffffffffffffffff1673ffffffffffffffffffffffffffffffffffffffff1681526020019081526020016000208190806001815401808255809150506001900390600052602060002001600090919091909150555050565b6000806002600084815260200190815260200160002060009054906101000a900473ffffffffffffffffffffffffffffffffffffffff169050600073ffffffffffffffffffffffffffffffffffffffff168173ffffffffffffffffffffffffffffffffffffffff161415915050919050565b828054610ad190610f66565b90600052602060002090601f016020900481019282610af35760008555610b3a565b82601f10610b0c57805160ff1916838001178555610b3a565b82800160010185558215610b3a579182015b82811115610b39578251825591602001919060010190610b1e565b5b509050610b479190610b4b565b5090565b5b80821115610b64576000816000905550600101610b4c565b5090565b600081519050919050565b600082825260208201905092915050565b60005b83811015610ba2578082015181840152602081019050610b87565b83811115610bb1576000848401525b50505050565b6000601f19601f8301169050919050565b6000610bd382610b68565b610bdd8185610b73565b9350610bed818560208601610b84565b610bf681610bb7565b840191505092915050565b60006020820190508181036000830152610c1b8184610bc8565b905092915050565b6000819050919050565b610c3681610c23565b82525050565b6000602082019050610c516000830184610c2d565b92915050565b6000604051905090565b600080fd5b600080fd5b600073ffffffffffffffffffffffffffffffffffffffff82169050919050565b6000610c9682610c6b565b9050919050565b610ca681610c8b565b8114610cb157600080fd5b50565b600081359050610cc381610c9d565b92915050565b610cd281610c23565b8114610cdd57600080fd5b50565b600081359050610cef81610cc9565b92915050565b60008060408385031215610d0c57610d0b610c61565b5b6000610d1a85828601610cb4565b9250506020610d2b85828601610ce0565b9150509250929050565b600060208284031215610d4b57610d4a610c61565b5b6000610d5984828501610ce0565b91505092915050565b610d6b81610c8b565b82525050565b6000602082019050610d866000830184610d62565b92915050565b600060208284031215610da257610da1610c61565b5b6000610db084828501610cb4565b91505092915050565b600080fd5b600080fd5b7f4e487b7100000000000000000000000000000000000000000000000000000000600052604160045260246000fd5b610dfb82610bb7565b810181811067ffffffffffffffff82111715610e1a57610e19610dc3565b5b80604052505050565b6000610e2d610c57565b9050610e398282610df2565b919050565b600067ffffffffffffffff821115610e5957610e58610dc3565b5b610e6282610bb7565b9050602081019050919050565b82818337600083830152505050565b6000610e91610e8c84610e3e565b610e23565b905082815260208101848484011115610ead57610eac610dbe565b5b610eb8848285610e6f565b509392505050565b600082601f830112610ed557610ed4610db9565b5b8135610ee5848260208601610e7e565b91505092915050565b600060208284031215610f0457610f03610c61565b5b600082013567ffffffffffffffff811115610f2257610f21610c66565b5b610f2e84828501610ec0565b91505092915050565b7f4e487b7100000000000000000000000000000000000000000000000000000000600052602260045260246000fd5b60006002820490506001821680610f7e57607f821691505b60208210811415610f9257610f91610f37565b5b50919050565b600081519050610fa781610cc9565b92915050565b600060208284031215610fc357610fc2610c61565b5b6000610fd184828501610f98565b91505092915050565b7f6f776e657220696e646578206973206f7574206f6620626f756e647300000000600082015250565b6000611010601c83610b73565b915061101b82610fda565b602082019050919050565b6000602082019050818103600083015261103f81611003565b9050919050565b7f4e487b7100000000000000000000000000000000000000000000000000000000600052603260045260246000fd5b7f676c6f62616c20696e646578206973206f7574206f6620626f756e6473000000600082015250565b60006110ab601d83610b73565b91506110b682611075565b602082019050919050565b600060208201905081810360008301526110da8161109e565b9050919050565b7f6f776e657220717565727920666f72206e6f6e6578697374656e7420746f6b6560008201527f6e00000000000000000000000000000000000000000000000000000000000000602082015250565b600061113d602183610b73565b9150611148826110e1565b604082019050919050565b6000602082019050818103600083015261116c81611130565b9050919050565b600081905092915050565b600061118982610b68565b6111938185611173565b93506111a3818560208601610b84565b80840191505092915050565b60006111bb828461117e565b915081905092915050565b7f4572726f72202d206b727970746f4269726420616c726561647920657869737460008201527f7300000000000000000000000000000000000000000000000000000000000000602082015250565b6000611222602183610b73565b915061122d826111c6565b604082019050919050565b6000602082019050818103600083015261125181611215565b9050919050565b7f4e487b7100000000000000000000000000000000000000000000000000000000600052601160045260246000fd5b600061129282610c23565b915061129d83610c23565b9250828210156112b0576112af611258565b5b828203905092915050565b7f4552433732313a206d696e74696e6720746f20746865207a65726f206164647260008201527f6573730000000000000000000000000000000000000000000000000000000000602082015250565b6000611317602383610b73565b9150611322826112bb565b604082019050919050565b600060208201905081810360008301526113468161130a565b9050919050565b7f4552433732313a20746f6b656e20616c7265616479206d696e74656400000000600082015250565b6000611383601c83610b73565b915061138e8261134d565b602082019050919050565b600060208201905081810360008301526113b281611376565b9050919050565b60006113c482610c23565b91507fffffffffffffffffffffffffffffffffffffffffffffffffffffffffffffffff8214156113f7576113f6611258565b5b60018201905091905056fea26469706673582212200d1f04908af2a22526d826597e21af2f978bd3ba9212b325fb1524364e43398064736f6c634300080a0033",
  "immutableReferences": {},
  "source": "// SPDX-License-Identifier: MIT\npragma solidity ^0.8.0;\n\nimport './ERC721Connector.sol';\n\ncontract KryptoBird is ERC721Connector {\n    // array to store our NFTs\n    string[] public kryptoBirdz;\n\n    mapping(string => bool) _kryptoBirdzExists;\n\n    function mint(string memory _kryptoBird) public {\n        // this is deprecated\n        // .push() no longer returns the length, but a ref\n        // to the added element\n        // uint _id = KryptoBirdz.push(_kryptoBird);\n\n        require(!_kryptoBirdzExists[_kryptoBird], 'Error - kryptoBird already exists');\n        \n        kryptoBirdz.push(_kryptoBird);\n        uint _id = kryptoBirdz.length - 1;\n\n        _mint(msg.sender, _id);\n\n        _kryptoBirdzExists[_kryptoBird] = true;\n    }\n\n    constructor() ERC721Connector('KryptoBird','KBIRDZ'){\n        \n    }\n}",
  "sourcePath": "/Users/jaredhodgkins/Projects/Solidity/nft-marketplace-starter-kit/src/contracts/KryptoBirdz.sol",
  "compiler": {
    "name": "solc",
    "version": "0.8.10+commit.fc410830.Emscripten.clang"
  },
  "schemaVersion": "3.4.3",
  "updatedAt": "2021-11-16T18:37:58.708Z",
  "networkType": "ethereum",
  "devdoc": {
    "kind": "dev",
    "methods": {
      "balanceOf(address)": {
        "details": "NFTs assigned to the zero address are considered invalid, and this  function throws for queries about the zero address.",
        "params": {
          "_owner": "An address for whom to query the balance"
        },
        "returns": {
          "_0": "The number of NFTs owned by `_owner`, possibly zero"
        }
      },
      "ownerOf(uint256)": {
        "details": "NFTs assigned to zero address are considered invalid, and queries  about them do throw.",
        "params": {
          "_tokenId": "The identifier for an NFT"
        },
        "returns": {
          "_0": "The address of the owner of the NFT"
        }
      }
    },
    "version": 1
  },
  "userdoc": {
    "kind": "user",
    "methods": {
      "balanceOf(address)": {
        "notice": "Count all NFTs assigned to an owner"
      },
      "ownerOf(uint256)": {
        "notice": "Find the owner of an NFT"
      }
    },
    "version": 1
  }
}